:100000000C9446000C945D000C945D000C945D0013
:100010000C945D000C945D000C945D000C945D00EC
:100020000C945D000C945D000C945D000C945D00DC
:100030000C945D000C945D000C945D000C945D00CC
:100040000C945D000C945D000C945D000C945D00BC
:100050000C945D000C945D000C945D000C945D00AC
:100060000C945D000C945D000C945D000C945D009C
:100070000C945D000C945D000C945D000C945D008C
:100080000C945D000C945D000C945D0011241FBE67
:10009000CFEFD0E4DEBFCDBF11E0A0E0B1E0EEEFE6
:1000A000F1E000E00BBF02C007900D92AE30B10747
:1000B000D9F70E94B0000C94FD000C940000CF937F
:1000C000DF9300D01F92CDB7DEB789837B836A832D
:1000D00089818A3031F48A819B81BC018DE00E9444
:1000E0005F0080EC90E0FC018081882F90E08072BE
:1000F0009927892BB1F386EC90E02981FC012083BC
:1001000080E090E00F900F900F90DF91CF910895D5
:10011000CF93DF9300D000D0CDB7DEB79C838B8325
:100120001A82198210C08B819C8181709927298144
:100130003A81820F931F9A8389838B819C81969544
:1001400087959C838B838B819C81892B61F7898127
:100150009A810F900F900F900F90DF91CF9108959B
:10016000CF93DF93CDB7DEB727970FB6F894DEBFF6
:100170000FBECDBF81E290E0FC01108282E290E0F0
:100180002FEFFC01208384E290E0FC01108285E2E5
:1001900090E02FEFFC01208387E290E02FEFFC013D
:1001A000208388E290E0FC01108219821A821B826F
:1001B00082E290E0FC018081898385E290E0FC018D
:1001C00080818A831B828981882F90E00E94880029
:1001D0009D838C838A81882F90E00E9488009F8372
:1001E0008E839C818B81980F8E81890F8B8388E20F
:0E01F00090E02B81FC012083DBCFF894FFCF41
:0E01FE0000000002000000005F000000000092
:00000001FF
