:100000000C9446000C945D000C945D000C945D0013
:100010000C945D000C945D000C945D000C945D00EC
:100020000C945D000C945D000C945D000C945D00DC
:100030000C945D000C945D000C945D000C945D00CC
:100040000C945D000C945D000C945D000C945D00BC
:100050000C945D000C945D000C945D000C945D00AC
:100060000C945D000C945D000C945D000C945D009C
:100070000C945D000C945D000C945D000C945D008C
:100080000C945D000C945D000C945D0011241FBE67
:10009000CFEFD0E4DEBFCDBF11E0A0E0B1E0E0ECF7
:1000A000F1E000E00BBF02C007900D92AE30B10747
:1000B000D9F70E9488000C94DE000C940000CF93C6
:1000C000DF9300D01F92CDB7DEB789837B836A832D
:1000D00089818A3031F48A819B81BC018DE00E9444
:1000E0005F0080EC90E0FC018081882F90E08072BE
:1000F0009927892BB1F386EC90E02981FC012083BC
:1001000080E090E00F900F900F90DF91CF910895D5
:10011000CF93DF9300D000D01F92CDB7DEB78AE235
:1001200090E0FC0110828BE290E02FEFFC01208335
:1001300084E290E021E0FC01208385E290E0FC0174
:1001400010821A821B821D821C82198283E290E037
:10015000FC0180818A8389E290E0FC0180818B83AD
:100160008B81882F90E09C01220F331F8A81882F7A
:1001700090E081709927822B932B9D838C838C81B7
:100180009D818634910518F082E0898311C08C81AD
:100190009D81069740F08C819D818634910518F4ED
:1001A00084E0898305C08C819D81069708F41982BB
:1001B00085E290E02981FC012083C8CFF894FFCF2D
:0E01C00000000002000000005F0000000000D0
:00000001FF
